:020000040000FA
:08000000803102288731F52F41
:10063A0001300800053008004E010F11080043017F
:10064A009A1208004E011911080043011B140800F0
:10065A0043019B14080043011B15080043019B1525
:10066A0008004301160808004E010F15080043014F
:10067A009B161B16080043019B121B160800F0006C
:10068A0070084301960008004001BC10BB010E30FF
:10069A00080083312D2383310130080083312D2353
:1006AA0083310230080083312D2383310130080061
:1006BA008331302383310030080083314023833172
:1006CA000530080083313C2383310A300800833126
:1006DA003C238331093008004001BC10BB010E30B5
:1006EA00080043011B0E890C890C013908004E01D0
:1006FA000F1D802B812B7C2B0800640080010131A7
:10070A00890B832B003440013C108331332383311E
:10071A000430080040013C143635833144238331C8
:10072A000330080040013C140314360D833144237E
:10073A008331053008004301990108309A009B0172
:10074A00093097009A120800623051018D008F011A
:10075A00910106309300920108004F01960197011A
:10076A00980199019A019B019C019D010800760854
:10077A00F1007508F0007708F8007808F2000030F8
:10078A008431972483310800D02B83317C23833131
:10079A008431E62483314001BC18D42BD52BCA2BD3
:1007AA00080043019A1ADA2BDB2BE22B9901083055
:1007BA009A009B01093097009A1608008331B223E8
:1007CA0083318331A023833185316C258331833191
:1007DA00A92383310800F3004001BC1DF52BF62B39
:1007EA00FF2B7308F2007208B7007108B90070088D
:1007FA00B800BC1108000230F0000030F10079089E
:10080A008331F02384310030F500F600F70183319B
:10081A00BC238431043008000130F0000030F100BC
:10082A0079088331F02384310030F500F600F701AE
:10083A008331BC238431023008000230F0000030DA
:10084A00F10079088331F02384310030F500F60095
:10085A00F7018331BC238431023008000130F000F3
:10086A000030F10079088331F02384310030F5003B
:10087A00F600F7018331BC2384310430080079087B
:10088A0086008701403FF000413FF1007908023EAF
:10089A008600870101088331F02384310030F50096
:1008AA00F600F7018331BC23843102300800F101DC
:1008BA00F10A4001BC18622C632C762C3C11FF30E3
:1008CA00F0007008B6008331212384318331272355
:1008DA00843183312423843140013B08F0007008BD
:1008EA00F100710808004001C100C201C20ABC1827
:1008FA007F2C802C942CBC14C20141080319862C2D
:10090A00872C8A2CBA01BA0A8E2C0230FD007D0887
:10091A00BA0083312A2384318331C92384314001C7
:10092A0042080800F4007008710403199D2C9E2CDB
:10093A00AF2C7435203E860087017008C03F7108CD
:10094A00C13F7208F30074082C3E860087017308C1
:10095A008100BC2C7435203E860087011D30C03FC3
:10096A000330C13F74082C3E8600870181010800CC
:10097A008331E323843140018C01920140013D1807
:10098A00C72CCA2C40010C15CC2C40010C1101308B
:10099A00D6005608BD076130C9001E30CA0087312B
:1009AA006127843103304001D7000830D600773000
:1009BA00890BDD2CD60BDD2CD70BDD2CC32C80311B
:1009CA00022883312123843140013C1CED2CEE2C7A
:1009DA00FB2C833176238431003A0319F52CF62C4B
:1009EA00FB2C0F304001BE003E08BA0040013A0815
:1009FA00BE00BF01BE35BF0D00303E0784008830FF
:100A0A003F3D8500013F8A00003F0A0085314001D1
:100A1A00C0004008BA00080040013C100230FA0049
:100A2A007A08BB00202D8331582385313C2D833130
:100A3A005D2385313C2D2E08FA007A08F90004302E
:100A4A00203E86008701413F8A00403F0A008531E7
:100A5A00FB00FC017C08003A0319342D1C2D7B088D
:100A6A00023A0319182D013A0319182D1C2D0800F2
:100A7A004001BC154D2D8331582385316B2D8331AF
:100A8A003923853103306B2D83315D2385316B2DFD
:100A9A002C08FA007A08F90021088A0020080A00BE
:100AAA008531FB00FC017C08003A03195D2D492DB4
:100ABA007B08013A0319492D033A0319402D013ADB
:100ACA000319402D073A0319442D492D0800400106
:100ADA00980199019A0104309200E0309300FF30A6
:100AEA009400FF307E01CE005030C3003730B8008A
:100AFA00C401B901CF01BA01C501D0013730BB0029
:100B0A00F030C600FF30D1003F30BC00F030C700E3
:100B1A00FF30D2000D307D01C90015307E019F00E3
:100B2A0016309D000F307D01C8000800F100F20167
:100B3A00F20A40013C19A22DA32DD32D7108F00011
:100B4A007008B600BC103C153C100E30F00070085E
:100B5A00BA00F430B4000130B500BC151D30A00055
:100B6A000330A100AC011D30A2000330A300AD0187
:100B7A001D30A4000330A500AE011D30A6000330CD
:100B8A00A700AF011F30A8000330A900B0018331CC
:100B9A00212385318331D6238531F2017208080079
:100BAA004001C700203085319B2585314001C500B1
:100BBA004508C80002304806031DE42DE52DE72D3F
:100BCA000230122E0130C5004508C6074803031D2E
:100BDA00EF2DF02DF62D0A304602031CF52DF62DC9
:100BEA00D72D4803031DFA2DFB2DFD2D0130122EA2
:100BFA004408F1004308F00047088331F0238531A7
:100C0A0000308431782485314001C5004508C80088
:100C1A0084315C2485314001480808008331362339
:100C2A008631FA0040013708860087017A08810078
:100C3A000130FA007A08B7070130B8020030B93B30
:100C4A003808390403192A2E2B2E302E83314023DB
:100C5A0086310530582EBC153A2E83316C238631E5
:100C6A00582E833167238631582E2C08FA007A08C9
:100C7A00F90021088A0020080A008631FB00FC01DD
:100C8A007C08003A03194A2E362E7B08013A0319CA
:100C9A00362E033A0319322E013A0319322E073A35
:100CAA000319362E362E08004001BF01FC1F5E2EA6
:100CBA005F2E662EFB09FC09FB0A0319FC0ABF0119
:100CCA00BF0AFA1F692E6A2E6F2EF909FA09F90A64
:100CDA000319FA0A79087A040319742E752E9E2EBE
:100CEA00BE01BE0A812E0130F935FA0D890B792E23
:100CFA000130FD007D08BE07FA1F842E852E782E4E
:100D0A007A087C02031D8B2E79087B02031C8E2E27
:100D1A008F2E932E7908FB027A08FC3B0130FA36B3
:100D2A00F90C890B942E0130BE02031D9D2E9E2EB6
:100D3A00852E3F080319A22EA32EA82EFB09FC0913
:100D4A00FB0A0319FC0A7C08FA007B08F900080070
:100D5A00833176238631003A0319B42EB52EE52E57
:100D6A00C22E83314E238631012F8331532386319C
:100D7A00012F83315D238631012F40012F08FA00AC
:100D8A007A08F9000630203E86008701413F8A0032
:100D9A00403F0A008631FB00FC017C08003A031937
:100DAA00D72EBE2E7B08013A0319BE2E033A031929
:100DBA00B62E013A0319BA2E073A0319BE2EBE2ED1
:100DCA0040013C101730203E86008701403F8400D6
:100DDA008501810A000883314423863101304001AC
:100DEA00B8020030B93B38083904031DFD2EFE2E27
:100DFA00002F0630012F03300800F601F11F062FDD
:100E0A00072F0E2FF009F109F00A0319F10AF6016A
:100E1A00F60AF31F112F122F1B2FF209F309F20AF8
:100E2A000319F30A0130F4007408F606F701F80111
:100E3A00700871040319222F232F522FF501F50A86
:100E4A002F2F0130F035F10D890B272F0130F400D7
:100E5A007408F507F11F322F332F262F0130F7358B
:100E6A00F80D890B342F71087302031D3E2F700889
:100E7A007202031C412F422F472F7008F202710899
:100E8A00F33B77140130F136F00C890B482F01300F
:100E9A00F502031D512F522F332F76080319562FAF
:100EAA00572F5C2FF709F809F70A0319F80A780887
:100EBA00F1007708F00008000A30F9000030FA0063
:100ECA0040014A08FC004908FB008631592687314F
:100EDA0079084001CB000330CB35FF3E031D712F4B
:100EEA004B350E38CC004C08CE004E080F38CB00DC
:100EFA004B08CF000A30F9000030FA000A30F0003F
:100F0A000030F1004A08F3004908F200873102274D
:100F1A0087317108FC007008FB0086315926873139
:100F2A0079084001CB000330CB35FF3E031D992FD2
:100F3A004B350D38CC004C08D00050080F38CB0088
:100F4A004B08D1000A30F9000030FA006430F00092
:100F5A000030F1004A08F3004908F20087310227FD
:100F6A0087317108FC007008FB00863159268731E9
:100F7A0079084001CB000330CB35FF3E031DC12F5A
:100F8A004B350B38CC004C08D20052080F38CB0036
:100F9A004B08D300E830F0000330F1004A08F300B0
:100FAA004908F20087310227873170084001CB00D7
:100FBA000330CB35FF3E031DDE2F4B350738CC00FF
:100FCA004C08D40054080F38CB004B08D500083021
:100FDA00C3000030C4004E308531D5258731080062
:100FEA0020308400003085001E308331822387310F
:100FFA0040018431BD2C49340334973403348F348F
:10100A000334AD34063413340634883403343D349F
:10101A0005344E34033453340334583403345D34C2
:10102A00033462340334673403346C340334713464
:06103A00033411340534FB
:020000040001F9
:0A000E00EC3FFF3F9F3FFF3FFF3F25
:00000001FF
