:020000040000FA
:0400000080312528FE
:100008007E1480310B1F09280A2823284E01991CC9
:100018000E280F281A288F1C122813281A28400186
:100028003E088A003D080A0080312328191C1D2833
:100038001E2823280F1C21282228232813287E1055
:1000480009008031272820308400003085002130C5
:100058008431D92480317E1040018331442B803093
:100068004001D6005608DB000A30CD000030CE0033
:100078005508D0005408CF0081315A218031400101
:100088004D08D6005608DB044030D6005608DA0082
:100098000A30CD000030CE000A30C4000030C50060
:1000A8005508C7005408C6008031A520803140019A
:1000B8004508D0004408CF0081315A2180314001E1
:1000C8004D08D6005608DA042030D6005608D90064
:1000D8000A30CD000030CE006430C4000030C500C6
:1000E8005508C7005408C6008031A520803140015A
:1000F8004508D0004408CF0081315A2180314001A1
:100108004D08D6005608D9041030D6005608D80035
:10011800E830C4000330C5005508C7005408C600BD
:100128008031A520803140014408D6005608D80403
:100138000430C9000030CA0058308131AE21803106
:1001480008004001CA01C51FAA28AB28B228C40963
:10015800C509C40A0319C50ACA01CA0AC71FB528AE
:10016800B628BF28C609C709C60A0319C70A013035
:10017800C8004808CA06CB01CC0144084504031945
:10018800C628C728F628C901C90AD3280130C435AA
:10019800C50D890BCB280130C8004808C907C51F01
:1001A800D628D728CA280130CB35CC0D890BD828BA
:1001B80045084702031DE22844084602031CE528B7
:1001C800E628EB284408C6024508C73B4B14013013
:1001D800C536C40C890BEC280130C902031DF5286B
:1001E800F628D7284A080319FA28FB280029CB093A
:1001F800CC09CB0A0319CC0A4C08C5004B08C4002B
:1002080008008431F7248131003A03190C290D299B
:100218003D291A29853120258131592985311B2508
:1002280081315929853111258131592940012F08FA
:10023800FA007A08F9000630203E86008701413F1F
:100248008A00403F0A008131FB00FC017C08003A2B
:1002580003192F2916297B08013A03191629033A8D
:1002680003190E29013A03191229073A0319162905
:10027800162940013C101730203E86008701403F78
:1002880084008501810A000885312A2581310130E1
:100298004001B8020030B93B38083904031D55291C
:1002A8005629582906305929033008004001D3013E
:1002B800D01F5F2960296729CF09D009CF0A031900
:1002C800D00AD301D30ACE1F6A296B297029CD0918
:1002D800CE09CD0A0319CE0A4D084E040319752913
:1002E80076299F29D201D20A82290130CD35CE0D37
:1002F800890B7A290130D1005108D207CE1F8529F0
:10030800862979294E085002031D8C294D084F0271
:10031800031C8F29902994294D08CF024E08D03B01
:100328000130CE36CD0C890B95290130D202031D40
:100338009E299F29862953080319A329A429A92995
:10034800CF09D009CF0A0319D00A5008CE004F08A8
:10035800CD0008004001D20052088600870101083C
:10036800CB004B08CC00520886008701413FCD00E6
:10037800520886008701423FCE0052088600870156
:10038800433FCF0020308231442281314001CB00ED
:100398004B08D10002305106031DD329D429D62990
:1003A8000230FD290130CB004B08D0075103031D53
:1003B800DE29DF29E5290A305002031CE429E52952
:1003C800C6295103031DE929EA29EC290130FD2931
:1003D8004A08C5004908C4005208843160248131A4
:1003E80000308331D52381314001CB004B08D10047
:1003F8005108080085314A258131FA004001370843
:10040800860087017A0881000130FA007A08B70768
:100418000130B8020030B93B380839040319152AED
:10042800162A1B2A8531332581310530432ABC150C
:10043800252A853102258131432A853107258131D5
:10044800432A2C08FA007A08F90021088A002008B3
:100458000A008231FB00FC017C08003A0319352AA6
:10046800212A7B08013A0319212A033A03191D2A74
:10047800013A03191D2A073A0319212A212A0800DB
:100488004001C700C801C80A3C194B2A4C2A872AD0
:100498004708C6004608B600BC103C153C100E3094
:1004A800C6004608BA00F430B4000130B500BC15E7
:1004B8005830A0000530A100AC015830A20005302A
:1004C800A300AD015830A4000530A500AE01583096
:1004D800A6000530A700AF015630A8000530A900D6
:1004E800B0012F30C4000530C5008431F1248231B9
:1004F80085313E25823184318024823185313B2506
:1005080082314001C801480808004001980199015A
:100518009A010430920060309300FF309400FF305D
:100528007E01CE008030C3003330B800C401B90169
:10053800CF01BA01C501D0013730BB00F030C60089
:10054800FF30D1003F30BC00F030C700FF30D20090
:100558000E307D01C50013307E019E000F309F00D4
:1005680014309C0002307D0191000C30C6000D3023
:10057800CB0008004001BC15CE2A853116258231F2
:10058800EC2A8531472582310330EC2A8531112543
:100598008231EC2A2C08FA007A08F90021088A002E
:1005A80020080A008231FB00FC017C08003A03198C
:1005B800DE2ACA2A7B08013A0319CA2A033A031910
:1005C800C12A013A0319C12A073A0319C52ACA2AB6
:1005D800080040013C100230FA007A08BB00FC2AEF
:1005E800853116258231182B853111258231182B3A
:1005F8002E08FA007A08F9000430203E86008701A8
:10060800413F8A00403F0A008331FB00FC017C081F
:10061800003A0319102BF82A7B08023A0319F42A26
:10062800013A0319F42AF82A080085314425833150
:1006380040013C1C202B212B2E2B8431F7248331A5
:10064800003A0319282B292B2E2B0F304001C1000B
:100658004108BA0040013A08C100C201C135C20DC3
:10066800B530410784008330423D8500013F8A0050
:10067800003F0A0083314001C3004308BA00080064
:1006880084310924833140018C01920140013F18D3
:100698004E2B512B40010C15532B40010C110130EE
:1006A800DC005C08BF070030D4000730D50080317B
:1006B8003320833141304001DC00EE30890B622B5E
:1006C800DC0B622B00004A2B80312528F4007008CF
:1006D80071040319702B712B822B7435203E860010
:1006E80087017008C03F7108C13F7208F3007408A1
:1006F8002C3E86008701730881008F2B7435203EBD
:10070800860087015830C03F0530C13F74082C3E31
:100718008600870181010800083042019F0090305F
:100728009D0024309E0019309B009C010030400140
:10073800C4000030C5008431E52483310030400115
:10074800C4000030C5008431DF248331003040010B
:10075800C4000030C5008431EB2483314001C0015E
:10076800080025340534C1340434CA34043405344B
:100778000134FE340134D2340434BE34023420341B
:1007880005341B34053416340534113405340C345F
:1007980005340734053402340534FD340434ED34AB
:1007A80002344001C500C601C60ABC18DC2BDD2B8B
:1007B800EE2BBC14C60145080319E32BE42BE72BE9
:1007C800BA01BA0AEB2B0230C4004408BA008531DA
:1007D80041258331400146080800790886008701D1
:1007E800403FF000413FF1007908023E8600870152
:1007F80001088431702483310030F500F600F701D8
:1008080084318D248331023008008431A524843159
:100818008431B82484318231892284318431AF24EF
:10082800843184319A2484318331902384310800BF
:100838000130F0000030F1007908843170248431EF
:100848000030F500F600F70184318D24843104303E
:1008580008000230F0000030F1007908843170247B
:1008680084310030F500F600F70184318D2484319D
:10087800023008000130F0000030F10079088431BE
:10088800702484310030F500F600F70184318D249E
:100898008431023008000230F0000030F10079089D
:1008A8008431702484310030F500F600F70184317A
:1008B8008D248431043008004001C700BC1D652C1C
:1008C800662C6F2C4708C6004608B7004508B900D3
:1008D8004408B800BC110800F3004001BC1D752C89
:1008E800762C7F2C7308F2007208B7007108B900E3
:1008F8007008B800BC1108004301901A842C852C9C
:100908008C2C8F0108309000910103308D009016D7
:1009180008007608F1007508F0007708F8007808F4
:10092800F200003083316A23843108004B019F01B3
:10093800FF309D009C014E018C1280304B019E00BF
:1009480008004F0196019701980199019A019B01AE
:100958009C019D010800623051018D008F019101B9
:10096800023093009201080043018F010830900083
:10097800910103308D009012080040013C140314CB
:10098800360D85312A2584310530080040013C1494
:10099800363585312A2584310330080040013C1062
:1009A80085314D258431043008006400800101310F
:1009B800890BDA2C003440014508E0004408DF00C8
:1009C800080040014508E2004408E1000800400131
:1009D8004508DE004408DD00080040014508BE0067
:1009E8004408BD0008004301110E890C890C013927
:1009F80008004001BC10BB010E30080085313725C6
:100A08008531093008008531372585310A300800DD
:100A180085313325853105300800853150258531EC
:100A280000300800853153258531013008008531B3
:100A38005325853102300800853153258531013031
:100A480008004001BC10BB010E300800F00070081F
:100A580043018C00080083311923853108004301C4
:100A680091121116080043019116111608004E0143
:100A7800191408004E010F10080043011114080052
:100A88004E010F1008004E010F14080043010C0816
:100A9800080043019115080043011115080043019E
:0C0AA8009114080005300800013008001F
:020000040001F9
:0A000E00EC3FFF3F9F3FFF3FFF3F25
:00000001FF
